{
  "contractName": "BloodBank",
  "abi": [
    {
      "inputs": [],
      "stateMutability": "nonpayable",
      "type": "constructor"
    },
    {
      "inputs": [],
      "name": "admin",
      "outputs": [
        {
          "internalType": "address",
          "name": "",
          "type": "address"
        }
      ],
      "stateMutability": "view",
      "type": "function"
    },
    {
      "inputs": [
        {
          "internalType": "uint256",
          "name": "",
          "type": "uint256"
        }
      ],
      "name": "bankData",
      "outputs": [
        {
          "internalType": "uint256",
          "name": "uid",
          "type": "uint256"
        },
        {
          "internalType": "address",
          "name": "bankAdd",
          "type": "address"
        },
        {
          "internalType": "string",
          "name": "name",
          "type": "string"
        },
        {
          "internalType": "string",
          "name": "contact",
          "type": "string"
        },
        {
          "internalType": "uint256",
          "name": "a_pos",
          "type": "uint256"
        },
        {
          "internalType": "uint256",
          "name": "a_neg",
          "type": "uint256"
        },
        {
          "internalType": "uint256",
          "name": "b_pos",
          "type": "uint256"
        },
        {
          "internalType": "uint256",
          "name": "b_neg",
          "type": "uint256"
        },
        {
          "internalType": "uint256",
          "name": "o_pos",
          "type": "uint256"
        },
        {
          "internalType": "uint256",
          "name": "o_neg",
          "type": "uint256"
        },
        {
          "internalType": "uint256",
          "name": "ab_pos",
          "type": "uint256"
        },
        {
          "internalType": "uint256",
          "name": "ab_neg",
          "type": "uint256"
        }
      ],
      "stateMutability": "view",
      "type": "function"
    },
    {
      "inputs": [
        {
          "internalType": "string",
          "name": "",
          "type": "string"
        }
      ],
      "name": "bankName",
      "outputs": [
        {
          "internalType": "uint256",
          "name": "",
          "type": "uint256"
        }
      ],
      "stateMutability": "view",
      "type": "function"
    },
    {
      "inputs": [
        {
          "internalType": "uint256",
          "name": "",
          "type": "uint256"
        }
      ],
      "name": "bank_name",
      "outputs": [
        {
          "internalType": "string",
          "name": "",
          "type": "string"
        }
      ],
      "stateMutability": "view",
      "type": "function"
    },
    {
      "inputs": [
        {
          "internalType": "uint256",
          "name": "",
          "type": "uint256"
        },
        {
          "internalType": "uint256",
          "name": "",
          "type": "uint256"
        }
      ],
      "name": "tList",
      "outputs": [
        {
          "internalType": "uint256",
          "name": "",
          "type": "uint256"
        }
      ],
      "stateMutability": "view",
      "type": "function"
    },
    {
      "inputs": [
        {
          "internalType": "uint256",
          "name": "",
          "type": "uint256"
        }
      ],
      "name": "transactionList",
      "outputs": [
        {
          "internalType": "uint256",
          "name": "tId",
          "type": "uint256"
        },
        {
          "internalType": "uint256",
          "name": "uniqueID",
          "type": "uint256"
        },
        {
          "internalType": "address",
          "name": "senderAddress",
          "type": "address"
        },
        {
          "internalType": "string",
          "name": "recieverName",
          "type": "string"
        },
        {
          "internalType": "string",
          "name": "recieverAdhar",
          "type": "string"
        },
        {
          "internalType": "uint256",
          "name": "amount",
          "type": "uint256"
        },
        {
          "internalType": "string",
          "name": "bType",
          "type": "string"
        },
        {
          "internalType": "bool",
          "name": "tType",
          "type": "bool"
        }
      ],
      "stateMutability": "view",
      "type": "function"
    },
    {
      "inputs": [
        {
          "internalType": "string",
          "name": "name",
          "type": "string"
        },
        {
          "internalType": "string",
          "name": "contact",
          "type": "string"
        },
        {
          "internalType": "uint256",
          "name": "a_pos",
          "type": "uint256"
        },
        {
          "internalType": "uint256",
          "name": "a_neg",
          "type": "uint256"
        },
        {
          "internalType": "uint256",
          "name": "b_pos",
          "type": "uint256"
        },
        {
          "internalType": "uint256",
          "name": "b_neg",
          "type": "uint256"
        },
        {
          "internalType": "uint256",
          "name": "o_pos",
          "type": "uint256"
        },
        {
          "internalType": "uint256",
          "name": "o_neg",
          "type": "uint256"
        },
        {
          "internalType": "uint256",
          "name": "ab_pos",
          "type": "uint256"
        },
        {
          "internalType": "uint256",
          "name": "ab_neg",
          "type": "uint256"
        }
      ],
      "name": "addBank",
      "outputs": [
        {
          "internalType": "uint256",
          "name": "",
          "type": "uint256"
        }
      ],
      "stateMutability": "nonpayable",
      "type": "function"
    },
    {
      "inputs": [
        {
          "internalType": "uint256",
          "name": "uniqueId",
          "type": "uint256"
        },
        {
          "internalType": "string",
          "name": "recieverName",
          "type": "string"
        },
        {
          "internalType": "string",
          "name": "recieverAdhar",
          "type": "string"
        },
        {
          "internalType": "uint256",
          "name": "amount",
          "type": "uint256"
        },
        {
          "internalType": "string",
          "name": "bType",
          "type": "string"
        },
        {
          "internalType": "bool",
          "name": "tType",
          "type": "bool"
        }
      ],
      "name": "addTransaction",
      "outputs": [
        {
          "internalType": "uint256",
          "name": "",
          "type": "uint256"
        }
      ],
      "stateMutability": "nonpayable",
      "type": "function"
    },
    {
      "inputs": [
        {
          "internalType": "uint256",
          "name": "uniqueId",
          "type": "uint256"
        },
        {
          "internalType": "bool",
          "name": "tType",
          "type": "bool"
        },
        {
          "internalType": "string",
          "name": "bType",
          "type": "string"
        },
        {
          "internalType": "uint256",
          "name": "amount",
          "type": "uint256"
        }
      ],
      "name": "changeData",
      "outputs": [
        {
          "internalType": "bool",
          "name": "",
          "type": "bool"
        }
      ],
      "stateMutability": "nonpayable",
      "type": "function"
    },
    {
      "inputs": [],
      "name": "check",
      "outputs": [
        {
          "internalType": "bool",
          "name": "",
          "type": "bool"
        }
      ],
      "stateMutability": "view",
      "type": "function"
    }
  ],
  "bytecode": "0x608060405234801561001057600080fd5b50336000806101000a81548173ffffffffffffffffffffffffffffffffffffffff021916908373ffffffffffffffffffffffffffffffffffffffff160217905550620186a1600181905550612711600281905550612153806100736000396000f3fe608060405234801561001057600080fd5b506004361061009e5760003560e01c8063919840ad11610066578063919840ad146101a5578063d157878e146101c3578063eddc014d146101f3578063f851a44014610223578063fcb12fd1146102415761009e565b806304ef5b21146100a357806338393846146100da578063423cb5171461010a57806357fb93721461013a578063859f102814610175575b600080fd5b6100bd60048036038101906100b891906115a5565b610271565b6040516100d19897969594939291906116d6565b60405180910390f35b6100f460048036038101906100ef919061189e565b61047e565b60405161010191906119b5565b60405180910390f35b610124600480360381019061011f91906119fc565b6106e2565b6040516101319190611a7f565b60405180910390f35b610154600480360381019061014f91906115a5565b611087565b60405161016c9c9b9a99989796959493929190611a9a565b60405180910390f35b61018f600480360381019061018a9190611b62565b611217565b60405161019c91906119b5565b60405180910390f35b6101ad611245565b6040516101ba9190611a7f565b60405180910390f35b6101dd60048036038101906101d891906115a5565b6112ad565b6040516101ea9190611bab565b60405180910390f35b61020d60048036038101906102089190611bcd565b611359565b60405161021a91906119b5565b60405180910390f35b61022b611416565b6040516102389190611cae565b60405180910390f35b61025b60048036038101906102569190611cc9565b61143a565b60405161026891906119b5565b60405180910390f35b60056020528060005260406000206000915090508060000154908060010154908060020160009054906101000a900473ffffffffffffffffffffffffffffffffffffffff16908060030180546102c690611d38565b80601f01602080910402602001604051908101604052809291908181526020018280546102f290611d38565b801561033f5780601f106103145761010080835404028352916020019161033f565b820191906000526020600020905b81548152906001019060200180831161032257829003601f168201915b50505050509080600401805461035490611d38565b80601f016020809104026020016040519081016040528092919081815260200182805461038090611d38565b80156103cd5780601f106103a2576101008083540402835291602001916103cd565b820191906000526020600020905b8154815290600101906020018083116103b057829003601f168201915b5050505050908060050154908060060180546103e890611d38565b80601f016020809104026020016040519081016040528092919081815260200182805461041490611d38565b80156104615780601f1061043657610100808354040283529160200191610461565b820191906000526020600020905b81548152906001019060200180831161044457829003601f168201915b5050505050908060070160009054906101000a900460ff16905088565b60006001805461048e9190611d99565b600181905550600060405180610180016040528060015481526020013373ffffffffffffffffffffffffffffffffffffffff1681526020018d81526020018c81526020018b81526020018a815260200189815260200188815260200187815260200186815260200185815260200184815250905060015460048d6040516105159190611e2b565b908152602001604051809103902081905550806006600060015481526020019081526020016000206000820151816000015560208201518160010160006101000a81548173ffffffffffffffffffffffffffffffffffffffff021916908373ffffffffffffffffffffffffffffffffffffffff16021790555060408201518160020190805190602001906105aa92919061146b565b5060608201518160030190805190602001906105c792919061146b565b506080820151816004015560a0820151816005015560c0820151816006015560e082015181600701556101008201518160080155610120820151816009015561014082015181600a015561016082015181600b015590505060078c90806001815401808255809150506001900390600052602060002001600090919091909150908051906020019061065a92919061146b565b50600067ffffffffffffffff81111561067657610675611773565b5b6040519080825280602002602001820160405280156106a45781602001602082028036833780820191505090505b5060036000600154815260200190815260200160002090805190602001906106cd9291906114f1565b506001549150509a9950505050505050505050565b60006006600086815260200190815260200160002060010160009054906101000a900473ffffffffffffffffffffffffffffffffffffffff1673ffffffffffffffffffffffffffffffffffffffff163373ffffffffffffffffffffffffffffffffffffffff16141561107a57600115158415151415610bd8578260405160200161076c9190611e2b565b6040516020818303038152906040528051906020012060405160200161079190611e8e565b6040516020818303038152906040528051906020012014156107ea578160066000878152602001908152602001600020600401546107cf9190611d99565b60066000878152602001908152602001600020600401819055505b826040516020016107fb9190611e2b565b6040516020818303038152906040528051906020012060405160200161082090611e8e565b6040516020818303038152906040528051906020012014156108795781600660008781526020019081526020016000206005015461085e9190611d99565b60066000878152602001908152602001600020600501819055505b8260405160200161088a9190611e2b565b604051602081830303815290604052805190602001206040516020016108af90611eef565b604051602081830303815290604052805190602001201415610908578160066000878152602001908152602001600020600601546108ed9190611d99565b60066000878152602001908152602001600020600601819055505b826040516020016109199190611e2b565b6040516020818303038152906040528051906020012060405160200161093e90611f50565b6040516020818303038152906040528051906020012014156109975781600660008781526020019081526020016000206007015461097c9190611d99565b60066000878152602001908152602001600020600701819055505b826040516020016109a89190611e2b565b604051602081830303815290604052805190602001206040516020016109cd90611fb1565b604051602081830303815290604052805190602001201415610a2657816006600087815260200190815260200160002060080154610a0b9190611d99565b60066000878152602001908152602001600020600801819055505b82604051602001610a379190611e2b565b60405160208183030381529060405280519060200120604051602001610a5c90612012565b604051602081830303815290604052805190602001201415610ab557816006600087815260200190815260200160002060090154610a9a9190611d99565b60066000878152602001908152602001600020600901819055505b82604051602001610ac69190611e2b565b60405160208183030381529060405280519060200120604051602001610aeb90612073565b604051602081830303815290604052805190602001201415610b44578160066000878152602001908152602001600020600a0154610b299190611d99565b60066000878152602001908152602001600020600a01819055505b82604051602001610b559190611e2b565b60405160208183030381529060405280519060200120604051602001610b7a906120d4565b604051602081830303815290604052805190602001201415610bd3578160066000878152602001908152602001600020600b0154610bb89190611d99565b60066000878152602001908152602001600020600b01819055505b611071565b82604051602001610be99190611e2b565b60405160208183030381529060405280519060200120604051602001610c0e90611e8e565b604051602081830303815290604052805190602001201415610c6b578160066000600154815260200190815260200160002060040154610c4e91906120e9565b600660006001548152602001908152602001600020600401819055505b82604051602001610c7c9190611e2b565b60405160208183030381529060405280519060200120604051602001610ca190611e8e565b604051602081830303815290604052805190602001201415610cfe578160066000600154815260200190815260200160002060050154610ce191906120e9565b600660006001548152602001908152602001600020600501819055505b82604051602001610d0f9190611e2b565b60405160208183030381529060405280519060200120604051602001610d3490611eef565b604051602081830303815290604052805190602001201415610d91578160066000600154815260200190815260200160002060060154610d7491906120e9565b600660006001548152602001908152602001600020600601819055505b82604051602001610da29190611e2b565b60405160208183030381529060405280519060200120604051602001610dc790611f50565b604051602081830303815290604052805190602001201415610e24578160066000600154815260200190815260200160002060070154610e0791906120e9565b600660006001548152602001908152602001600020600701819055505b82604051602001610e359190611e2b565b60405160208183030381529060405280519060200120604051602001610e5a90611fb1565b604051602081830303815290604052805190602001201415610eb7578160066000600154815260200190815260200160002060080154610e9a91906120e9565b600660006001548152602001908152602001600020600801819055505b82604051602001610ec89190611e2b565b60405160208183030381529060405280519060200120604051602001610eed90612012565b604051602081830303815290604052805190602001201415610f4a578160066000600154815260200190815260200160002060090154610f2d91906120e9565b600660006001548152602001908152602001600020600901819055505b82604051602001610f5b9190611e2b565b60405160208183030381529060405280519060200120604051602001610f8090612073565b604051602081830303815290604052805190602001201415610fdd5781600660006001548152602001908152602001600020600a0154610fc091906120e9565b600660006001548152602001908152602001600020600a01819055505b82604051602001610fee9190611e2b565b60405160208183030381529060405280519060200120604051602001611013906120d4565b6040516020818303038152906040528051906020012014156110705781600660006001548152602001908152602001600020600b015461105391906120e9565b600660006001548152602001908152602001600020600b01819055505b5b6001905061107f565b600090505b949350505050565b60066020528060005260406000206000915090508060000154908060010160009054906101000a900473ffffffffffffffffffffffffffffffffffffffff16908060020180546110d690611d38565b80601f016020809104026020016040519081016040528092919081815260200182805461110290611d38565b801561114f5780601f106111245761010080835404028352916020019161114f565b820191906000526020600020905b81548152906001019060200180831161113257829003601f168201915b50505050509080600301805461116490611d38565b80601f016020809104026020016040519081016040528092919081815260200182805461119090611d38565b80156111dd5780601f106111b2576101008083540402835291602001916111dd565b820191906000526020600020905b8154815290600101906020018083116111c057829003601f168201915b50505050509080600401549080600501549080600601549080600701549080600801549080600901549080600a01549080600b015490508c565b6004818051602081018201805184825260208301602085012081835280955050505050506000915090505481565b60008060009054906101000a900473ffffffffffffffffffffffffffffffffffffffff1673ffffffffffffffffffffffffffffffffffffffff163373ffffffffffffffffffffffffffffffffffffffff1614156112a557600190506112aa565b600090505b90565b600781815481106112bd57600080fd5b9060005260206000200160009150905080546112d890611d38565b80601f016020809104026020016040519081016040528092919081815260200182805461130490611d38565b80156113515780601f1061132657610100808354040283529160200191611351565b820191906000526020600020905b81548152906001019060200180831161133457829003601f168201915b505050505081565b6000600160025461136a9190611d99565b600281905550600060405180610100016040528060025481526020018981526020013373ffffffffffffffffffffffffffffffffffffffff168152602001888152602001878152602001868152602001858152602001841515815250905060036000600154815260200190815260200160002060025490806001815401808255809150506001900390600052602060002001600090919091909150556002549150509695505050505050565b60008054906101000a900473ffffffffffffffffffffffffffffffffffffffff1681565b6003602052816000526040600020818154811061145657600080fd5b90600052602060002001600091509150505481565b82805461147790611d38565b90600052602060002090601f01602090048101928261149957600085556114e0565b82601f106114b257805160ff19168380011785556114e0565b828001600101855582156114e0579182015b828111156114df5782518255916020019190600101906114c4565b5b5090506114ed919061153e565b5090565b82805482825590600052602060002090810192821561152d579160200282015b8281111561152c578251825591602001919060010190611511565b5b50905061153a919061153e565b5090565b5b8082111561155757600081600090555060010161153f565b5090565b6000604051905090565b600080fd5b600080fd5b6000819050919050565b6115828161156f565b811461158d57600080fd5b50565b60008135905061159f81611579565b92915050565b6000602082840312156115bb576115ba611565565b5b60006115c984828501611590565b91505092915050565b6115db8161156f565b82525050565b600073ffffffffffffffffffffffffffffffffffffffff82169050919050565b600061160c826115e1565b9050919050565b61161c81611601565b82525050565b600081519050919050565b600082825260208201905092915050565b60005b8381101561165c578082015181840152602081019050611641565b8381111561166b576000848401525b50505050565b6000601f19601f8301169050919050565b600061168d82611622565b611697818561162d565b93506116a781856020860161163e565b6116b081611671565b840191505092915050565b60008115159050919050565b6116d0816116bb565b82525050565b6000610100820190506116ec600083018b6115d2565b6116f9602083018a6115d2565b6117066040830189611613565b81810360608301526117188188611682565b9050818103608083015261172c8187611682565b905061173b60a08301866115d2565b81810360c083015261174d8185611682565b905061175c60e08301846116c7565b9998505050505050505050565b600080fd5b600080fd5b7f4e487b7100000000000000000000000000000000000000000000000000000000600052604160045260246000fd5b6117ab82611671565b810181811067ffffffffffffffff821117156117ca576117c9611773565b5b80604052505050565b60006117dd61155b565b90506117e982826117a2565b919050565b600067ffffffffffffffff82111561180957611808611773565b5b61181282611671565b9050602081019050919050565b82818337600083830152505050565b600061184161183c846117ee565b6117d3565b90508281526020810184848401111561185d5761185c61176e565b5b61186884828561181f565b509392505050565b600082601f83011261188557611884611769565b5b813561189584826020860161182e565b91505092915050565b6000806000806000806000806000806101408b8d0312156118c2576118c1611565565b5b60008b013567ffffffffffffffff8111156118e0576118df61156a565b5b6118ec8d828e01611870565b9a505060208b013567ffffffffffffffff81111561190d5761190c61156a565b5b6119198d828e01611870565b995050604061192a8d828e01611590565b985050606061193b8d828e01611590565b975050608061194c8d828e01611590565b96505060a061195d8d828e01611590565b95505060c061196e8d828e01611590565b94505060e061197f8d828e01611590565b9350506101006119918d828e01611590565b9250506101206119a38d828e01611590565b9150509295989b9194979a5092959850565b60006020820190506119ca60008301846115d2565b92915050565b6119d9816116bb565b81146119e457600080fd5b50565b6000813590506119f6816119d0565b92915050565b60008060008060808587031215611a1657611a15611565565b5b6000611a2487828801611590565b9450506020611a35878288016119e7565b935050604085013567ffffffffffffffff811115611a5657611a5561156a565b5b611a6287828801611870565b9250506060611a7387828801611590565b91505092959194509250565b6000602082019050611a9460008301846116c7565b92915050565b600061018082019050611ab0600083018f6115d2565b611abd602083018e611613565b8181036040830152611acf818d611682565b90508181036060830152611ae3818c611682565b9050611af2608083018b6115d2565b611aff60a083018a6115d2565b611b0c60c08301896115d2565b611b1960e08301886115d2565b611b276101008301876115d2565b611b356101208301866115d2565b611b436101408301856115d2565b611b516101608301846115d2565b9d9c50505050505050505050505050565b600060208284031215611b7857611b77611565565b5b600082013567ffffffffffffffff811115611b9657611b9561156a565b5b611ba284828501611870565b91505092915050565b60006020820190508181036000830152611bc58184611682565b905092915050565b60008060008060008060c08789031215611bea57611be9611565565b5b6000611bf889828a01611590565b965050602087013567ffffffffffffffff811115611c1957611c1861156a565b5b611c2589828a01611870565b955050604087013567ffffffffffffffff811115611c4657611c4561156a565b5b611c5289828a01611870565b9450506060611c6389828a01611590565b935050608087013567ffffffffffffffff811115611c8457611c8361156a565b5b611c9089828a01611870565b92505060a0611ca189828a016119e7565b9150509295509295509295565b6000602082019050611cc36000830184611613565b92915050565b60008060408385031215611ce057611cdf611565565b5b6000611cee85828601611590565b9250506020611cff85828601611590565b9150509250929050565b7f4e487b7100000000000000000000000000000000000000000000000000000000600052602260045260246000fd5b60006002820490506001821680611d5057607f821691505b60208210811415611d6457611d63611d09565b5b50919050565b7f4e487b7100000000000000000000000000000000000000000000000000000000600052601160045260246000fd5b6000611da48261156f565b9150611daf8361156f565b9250827fffffffffffffffffffffffffffffffffffffffffffffffffffffffffffffffff03821115611de457611de3611d6a565b5b828201905092915050565b600081905092915050565b6000611e0582611622565b611e0f8185611def565b9350611e1f81856020860161163e565b80840191505092915050565b6000611e378284611dfa565b915081905092915050565b7f615f706f73000000000000000000000000000000000000000000000000000000600082015250565b6000611e78600583611def565b9150611e8382611e42565b600582019050919050565b6000611e9982611e6b565b9150819050919050565b7f625f706f73000000000000000000000000000000000000000000000000000000600082015250565b6000611ed9600583611def565b9150611ee482611ea3565b600582019050919050565b6000611efa82611ecc565b9150819050919050565b7f625f6e6567000000000000000000000000000000000000000000000000000000600082015250565b6000611f3a600583611def565b9150611f4582611f04565b600582019050919050565b6000611f5b82611f2d565b9150819050919050565b7f6f5f706f73000000000000000000000000000000000000000000000000000000600082015250565b6000611f9b600583611def565b9150611fa682611f65565b600582019050919050565b6000611fbc82611f8e565b9150819050919050565b7f6f5f6e6567000000000000000000000000000000000000000000000000000000600082015250565b6000611ffc600583611def565b915061200782611fc6565b600582019050919050565b600061201d82611fef565b9150819050919050565b7f61625f706f730000000000000000000000000000000000000000000000000000600082015250565b600061205d600683611def565b915061206882612027565b600682019050919050565b600061207e82612050565b9150819050919050565b7f61625f6e65670000000000000000000000000000000000000000000000000000600082015250565b60006120be600683611def565b91506120c982612088565b600682019050919050565b60006120df826120b1565b9150819050919050565b60006120f48261156f565b91506120ff8361156f565b92508282101561211257612111611d6a565b5b82820390509291505056fea26469706673582212200f5144b1a3c3ce13453c9e6996302b0f9cd71dfb5682a38166c95f41296b767364736f6c634300080b0033",
  "immutableReferences": {},
  "source": "// SPDX-License-Identifier: GPL-3.0\r\n\r\npragma solidity >=0.8.2 <0.9.0;\r\n\r\n/**\r\n * @title Storage\r\n * @dev Store & retrieve value in a variable\r\n * @custom:dev-run-script ./scripts/deploy_with_ethers.ts\r\n */\r\ncontract BloodBank {\r\n\r\n    address public admin;\r\n    uint private uniqueID ;\r\n    uint private tID ;\r\n     constructor () public {\r\n\r\n        admin=msg.sender;\r\n        uniqueID=100001;\r\n        tID=10001;\r\n    }\r\n   \r\n    struct transact{\r\n        uint tId;\r\n        uint uniqueID;\r\n        address senderAddress;\r\n        string recieverName;\r\n        string recieverAdhar;\r\n        uint amount;\r\n        string bType;\r\n        bool tType;\r\n\r\n    }\r\n    struct bloodBank{\r\n        uint uid;\r\n        address bankAdd;\r\n        string name;\r\n        string contact;\r\n        uint a_pos;\r\n        uint a_neg;\r\n        uint b_pos;\r\n        uint b_neg;\r\n        uint o_pos;\r\n        uint o_neg;\r\n        uint ab_pos;\r\n        uint ab_neg;\r\n    }\r\n    // This is a mapping of accounts and the products owned by the account (stroes unique ID)\r\n    mapping (uint => uint[]) public  tList; //uid-> list of tid\r\n    mapping (string => uint) public  bankName; //uid-> list of tid\r\n    mapping (uint => transact) public transactionList;// tid-> transaction\r\n    mapping ( uint => bloodBank ) public bankData; // uid->blood bank data\r\n    string[] public bank_name;\r\n    // // array for user's owned product names\r\n    // bytes32[] public OwnedNames;\r\n    \r\n   \r\n    \r\n    function addBank(string memory name,string memory  contact,  uint a_pos,\r\n        uint a_neg,uint b_pos,uint b_neg,uint o_pos, uint o_neg,\r\n        uint ab_pos,uint ab_neg) public returns(uint){\r\n             uniqueID=uniqueID+1;\r\n            \r\n            bloodBank memory b=bloodBank(uniqueID,msg.sender,name,contact\r\n             ,a_pos,a_neg,b_pos,b_neg,o_pos,o_neg,ab_pos,ab_neg\r\n             );\r\n            // BloodBank b = BloodBank(uniqueID, name, contact, a_pos, a_neg, b_pos, b_neg, o_pos, o_neg, ab_pos, ab_neg);\r\n            bankName[name]=uniqueID;\r\n             bankData[uniqueID]=b;\r\n             bank_name.push(name);\r\n             tList[uniqueID]=new uint[](0);\r\n             return uniqueID;\r\n        \r\n        }\r\n    function addTransaction(uint uniqueId,string memory recieverName,string memory recieverAdhar,\r\n        uint amount,string memory bType,bool tType) public returns(uint){\r\n            tID=tID+1;\r\n            transact memory t=transact(tID,uniqueId,msg.sender,recieverName,recieverAdhar,amount,bType,tType);\r\n            tList[uniqueID].push(tID);\r\n            return tID;\r\n        \r\n        }\r\n    function changeData(uint uniqueId,bool tType,string memory bType,uint amount) public returns(bool){\r\n        if(msg.sender == bankData[uniqueId].bankAdd){\r\n         if(tType==true){ // recieving blood\r\n            // string var s=bType;\r\n            if( keccak256(abi.encodePacked('a_pos')) == keccak256(abi.encodePacked(bType)))\r\n            bankData[uniqueId].a_pos=bankData[uniqueId].a_pos+amount;\r\n            if(keccak256(abi.encodePacked('a_pos')) == keccak256(abi.encodePacked(bType)))\r\n            bankData[uniqueId].a_neg=bankData[uniqueId].a_neg+amount;\r\n            if(keccak256(abi.encodePacked('b_pos')) == keccak256(abi.encodePacked(bType)))\r\n            bankData[uniqueId].b_pos=bankData[uniqueId].b_pos+amount;\r\n            if(keccak256(abi.encodePacked('b_neg')) == keccak256(abi.encodePacked(bType)))\r\n            bankData[uniqueId].b_neg=bankData[uniqueId].b_neg+amount;\r\n            if(keccak256(abi.encodePacked('o_pos')) == keccak256(abi.encodePacked(bType)))\r\n            bankData[uniqueId].o_pos=bankData[uniqueId].o_pos+amount;\r\n            if(keccak256(abi.encodePacked('o_neg')) == keccak256(abi.encodePacked(bType)))\r\n            bankData[uniqueId].o_neg=bankData[uniqueId].o_neg+amount;\r\n            if(keccak256(abi.encodePacked('ab_pos')) == keccak256(abi.encodePacked(bType)))\r\n            bankData[uniqueId].ab_pos=bankData[uniqueId].ab_pos+amount;\r\n            if(keccak256(abi.encodePacked('ab_neg')) == keccak256(abi.encodePacked(bType)))\r\n            bankData[uniqueId].ab_neg=bankData[uniqueId].ab_neg+amount;\r\n         }\r\n         else{\r\n             if( keccak256(abi.encodePacked('a_pos')) == keccak256(abi.encodePacked(bType)))\r\n            bankData[uniqueID].a_pos=bankData[uniqueID].a_pos-amount;\r\n            if(keccak256(abi.encodePacked('a_pos')) == keccak256(abi.encodePacked(bType)))\r\n            bankData[uniqueID].a_neg=bankData[uniqueID].a_neg-amount;\r\n            if(keccak256(abi.encodePacked('b_pos')) == keccak256(abi.encodePacked(bType)))\r\n            bankData[uniqueID].b_pos=bankData[uniqueID].b_pos-amount;\r\n            if(keccak256(abi.encodePacked('b_neg')) == keccak256(abi.encodePacked(bType)))\r\n            bankData[uniqueID].b_neg=bankData[uniqueID].b_neg-amount;\r\n            if(keccak256(abi.encodePacked('o_pos')) == keccak256(abi.encodePacked(bType)))\r\n            bankData[uniqueID].o_pos=bankData[uniqueID].o_pos-amount;\r\n            if(keccak256(abi.encodePacked('o_neg')) == keccak256(abi.encodePacked(bType)))\r\n            bankData[uniqueID].o_neg=bankData[uniqueID].o_neg-amount;\r\n            if(keccak256(abi.encodePacked('ab_pos')) == keccak256(abi.encodePacked(bType)))\r\n            bankData[uniqueID].ab_pos=bankData[uniqueID].ab_pos-amount;\r\n            if(keccak256(abi.encodePacked('ab_neg')) == keccak256(abi.encodePacked(bType)))\r\n            bankData[uniqueID].ab_neg=bankData[uniqueID].ab_neg-amount;\r\n         }\r\n         return true;\r\n         }\r\n         else{\r\n             return false;\r\n         }\r\n    }\r\n    function check() public view returns (bool){\r\n        if(msg.sender==admin){\r\n            return true;\r\n        }\r\n        else{\r\n            return false;\r\n        }\r\n\r\n    }\r\n    \r\n\r\n    \r\n}\r\n",
  "sourcePath": "C:\\Users\\91629\\OneDrive\\Desktop\\BloodChain\\bloodchain\\contracts\\BloodBank.sol",
  "compiler": {
    "name": "solc",
    "version": "0.8.11+commit.d7f03943.Emscripten.clang"
  },
  "schemaVersion": "3.4.4",
  "updatedAt": "2023-07-10T11:35:53.819Z",
  "devdoc": {
    "custom:dev-run-script": "./scripts/deploy_with_ethers.ts",
    "details": "Store & retrieve value in a variable",
    "kind": "dev",
    "methods": {},
    "title": "Storage",
    "version": 1
  },
  "userdoc": {
    "kind": "user",
    "methods": {},
    "version": 1
  }
}