{
  "contractName": "BloodBank",
  "abi": [
    {
      "inputs": [],
      "stateMutability": "nonpayable",
      "type": "constructor"
    },
    {
      "inputs": [
        {
          "internalType": "uint256",
          "name": "",
          "type": "uint256"
        }
      ],
      "name": "bankData",
      "outputs": [
        {
          "internalType": "uint256",
          "name": "uid",
          "type": "uint256"
        },
        {
          "internalType": "address",
          "name": "bankAdd",
          "type": "address"
        },
        {
          "internalType": "string",
          "name": "name",
          "type": "string"
        },
        {
          "internalType": "string",
          "name": "contact",
          "type": "string"
        },
        {
          "internalType": "uint256",
          "name": "a_pos",
          "type": "uint256"
        },
        {
          "internalType": "uint256",
          "name": "a_neg",
          "type": "uint256"
        },
        {
          "internalType": "uint256",
          "name": "b_pos",
          "type": "uint256"
        },
        {
          "internalType": "uint256",
          "name": "b_neg",
          "type": "uint256"
        },
        {
          "internalType": "uint256",
          "name": "o_pos",
          "type": "uint256"
        },
        {
          "internalType": "uint256",
          "name": "o_neg",
          "type": "uint256"
        },
        {
          "internalType": "uint256",
          "name": "ab_pos",
          "type": "uint256"
        },
        {
          "internalType": "uint256",
          "name": "ab_neg",
          "type": "uint256"
        }
      ],
      "stateMutability": "view",
      "type": "function"
    },
    {
      "inputs": [
        {
          "internalType": "string",
          "name": "",
          "type": "string"
        }
      ],
      "name": "bankName",
      "outputs": [
        {
          "internalType": "uint256",
          "name": "",
          "type": "uint256"
        }
      ],
      "stateMutability": "view",
      "type": "function"
    },
    {
      "inputs": [
        {
          "internalType": "uint256",
          "name": "",
          "type": "uint256"
        }
      ],
      "name": "bank_name",
      "outputs": [
        {
          "internalType": "string",
          "name": "",
          "type": "string"
        }
      ],
      "stateMutability": "view",
      "type": "function"
    },
    {
      "inputs": [
        {
          "internalType": "uint256",
          "name": "",
          "type": "uint256"
        },
        {
          "internalType": "uint256",
          "name": "",
          "type": "uint256"
        }
      ],
      "name": "tList",
      "outputs": [
        {
          "internalType": "uint256",
          "name": "",
          "type": "uint256"
        }
      ],
      "stateMutability": "view",
      "type": "function"
    },
    {
      "inputs": [
        {
          "internalType": "uint256",
          "name": "",
          "type": "uint256"
        }
      ],
      "name": "transactionList",
      "outputs": [
        {
          "internalType": "uint256",
          "name": "tId",
          "type": "uint256"
        },
        {
          "internalType": "uint256",
          "name": "uniqueID",
          "type": "uint256"
        },
        {
          "internalType": "address",
          "name": "senderAddress",
          "type": "address"
        },
        {
          "internalType": "string",
          "name": "recieverName",
          "type": "string"
        },
        {
          "internalType": "string",
          "name": "recieverAdhar",
          "type": "string"
        },
        {
          "internalType": "uint256",
          "name": "amount",
          "type": "uint256"
        },
        {
          "internalType": "string",
          "name": "bType",
          "type": "string"
        },
        {
          "internalType": "bool",
          "name": "tType",
          "type": "bool"
        }
      ],
      "stateMutability": "view",
      "type": "function"
    },
    {
      "inputs": [
        {
          "internalType": "string",
          "name": "name",
          "type": "string"
        },
        {
          "internalType": "string",
          "name": "contact",
          "type": "string"
        },
        {
          "internalType": "uint256",
          "name": "a_pos",
          "type": "uint256"
        },
        {
          "internalType": "uint256",
          "name": "a_neg",
          "type": "uint256"
        },
        {
          "internalType": "uint256",
          "name": "b_pos",
          "type": "uint256"
        },
        {
          "internalType": "uint256",
          "name": "b_neg",
          "type": "uint256"
        },
        {
          "internalType": "uint256",
          "name": "o_pos",
          "type": "uint256"
        },
        {
          "internalType": "uint256",
          "name": "o_neg",
          "type": "uint256"
        },
        {
          "internalType": "uint256",
          "name": "ab_pos",
          "type": "uint256"
        },
        {
          "internalType": "uint256",
          "name": "ab_neg",
          "type": "uint256"
        }
      ],
      "name": "addBank",
      "outputs": [
        {
          "internalType": "uint256",
          "name": "",
          "type": "uint256"
        }
      ],
      "stateMutability": "nonpayable",
      "type": "function"
    },
    {
      "inputs": [
        {
          "internalType": "uint256",
          "name": "uniqueId",
          "type": "uint256"
        },
        {
          "internalType": "string",
          "name": "recieverName",
          "type": "string"
        },
        {
          "internalType": "string",
          "name": "recieverAdhar",
          "type": "string"
        },
        {
          "internalType": "uint256",
          "name": "amount",
          "type": "uint256"
        },
        {
          "internalType": "string",
          "name": "bType",
          "type": "string"
        },
        {
          "internalType": "bool",
          "name": "tType",
          "type": "bool"
        }
      ],
      "name": "addTransaction",
      "outputs": [
        {
          "internalType": "uint256",
          "name": "",
          "type": "uint256"
        }
      ],
      "stateMutability": "nonpayable",
      "type": "function"
    },
    {
      "inputs": [
        {
          "internalType": "uint256",
          "name": "uniqueId",
          "type": "uint256"
        },
        {
          "internalType": "bool",
          "name": "tType",
          "type": "bool"
        },
        {
          "internalType": "string",
          "name": "bType",
          "type": "string"
        },
        {
          "internalType": "uint256",
          "name": "amount",
          "type": "uint256"
        }
      ],
      "name": "changeData",
      "outputs": [
        {
          "internalType": "bool",
          "name": "",
          "type": "bool"
        }
      ],
      "stateMutability": "nonpayable",
      "type": "function"
    }
  ],
  "bytecode": "0x608060405234801561001057600080fd5b50336000806101000a81548173ffffffffffffffffffffffffffffffffffffffff021916908373ffffffffffffffffffffffffffffffffffffffff160217905550620186a160018190555061271160028190555061205a806100736000396000f3fe608060405234801561001057600080fd5b50600436106100885760003560e01c8063859f10281161005b578063859f10281461015f578063d157878e1461018f578063eddc014d146101bf578063fcb12fd1146101ef57610088565b806304ef5b211461008d57806338393846146100c4578063423cb517146100f457806357fb937214610124575b600080fd5b6100a760048036038101906100a291906114c7565b61021f565b6040516100bb9897969594939291906115f8565b60405180910390f35b6100de60048036038101906100d991906117c0565b61042c565b6040516100eb91906118d7565b60405180910390f35b61010e6004803603810190610109919061191e565b610690565b60405161011b91906119a1565b60405180910390f35b61013e600480360381019061013991906114c7565b611035565b6040516101569c9b9a999897969594939291906119bc565b60405180910390f35b61017960048036038101906101749190611a84565b6111c5565b60405161018691906118d7565b60405180910390f35b6101a960048036038101906101a491906114c7565b6111f3565b6040516101b69190611acd565b60405180910390f35b6101d960048036038101906101d49190611aef565b61129f565b6040516101e691906118d7565b60405180910390f35b61020960048036038101906102049190611bd0565b61135c565b60405161021691906118d7565b60405180910390f35b60056020528060005260406000206000915090508060000154908060010154908060020160009054906101000a900473ffffffffffffffffffffffffffffffffffffffff169080600301805461027490611c3f565b80601f01602080910402602001604051908101604052809291908181526020018280546102a090611c3f565b80156102ed5780601f106102c2576101008083540402835291602001916102ed565b820191906000526020600020905b8154815290600101906020018083116102d057829003601f168201915b50505050509080600401805461030290611c3f565b80601f016020809104026020016040519081016040528092919081815260200182805461032e90611c3f565b801561037b5780601f106103505761010080835404028352916020019161037b565b820191906000526020600020905b81548152906001019060200180831161035e57829003601f168201915b50505050509080600501549080600601805461039690611c3f565b80601f01602080910402602001604051908101604052809291908181526020018280546103c290611c3f565b801561040f5780601f106103e45761010080835404028352916020019161040f565b820191906000526020600020905b8154815290600101906020018083116103f257829003601f168201915b5050505050908060070160009054906101000a900460ff16905088565b60006001805461043c9190611ca0565b600181905550600060405180610180016040528060015481526020013373ffffffffffffffffffffffffffffffffffffffff1681526020018d81526020018c81526020018b81526020018a815260200189815260200188815260200187815260200186815260200185815260200184815250905060015460048d6040516104c39190611d32565b908152602001604051809103902081905550806006600060015481526020019081526020016000206000820151816000015560208201518160010160006101000a81548173ffffffffffffffffffffffffffffffffffffffff021916908373ffffffffffffffffffffffffffffffffffffffff160217905550604082015181600201908051906020019061055892919061138d565b50606082015181600301908051906020019061057592919061138d565b506080820151816004015560a0820151816005015560c0820151816006015560e082015181600701556101008201518160080155610120820151816009015561014082015181600a015561016082015181600b015590505060078c90806001815401808255809150506001900390600052602060002001600090919091909150908051906020019061060892919061138d565b50600067ffffffffffffffff81111561062457610623611695565b5b6040519080825280602002602001820160405280156106525781602001602082028036833780820191505090505b50600360006001548152602001908152602001600020908051906020019061067b929190611413565b506001549150509a9950505050505050505050565b60006006600086815260200190815260200160002060010160009054906101000a900473ffffffffffffffffffffffffffffffffffffffff1673ffffffffffffffffffffffffffffffffffffffff163373ffffffffffffffffffffffffffffffffffffffff16141561102857600115158415151415610b86578260405160200161071a9190611d32565b6040516020818303038152906040528051906020012060405160200161073f90611d95565b6040516020818303038152906040528051906020012014156107985781600660008781526020019081526020016000206004015461077d9190611ca0565b60066000878152602001908152602001600020600401819055505b826040516020016107a99190611d32565b604051602081830303815290604052805190602001206040516020016107ce90611d95565b6040516020818303038152906040528051906020012014156108275781600660008781526020019081526020016000206005015461080c9190611ca0565b60066000878152602001908152602001600020600501819055505b826040516020016108389190611d32565b6040516020818303038152906040528051906020012060405160200161085d90611df6565b6040516020818303038152906040528051906020012014156108b65781600660008781526020019081526020016000206006015461089b9190611ca0565b60066000878152602001908152602001600020600601819055505b826040516020016108c79190611d32565b604051602081830303815290604052805190602001206040516020016108ec90611e57565b6040516020818303038152906040528051906020012014156109455781600660008781526020019081526020016000206007015461092a9190611ca0565b60066000878152602001908152602001600020600701819055505b826040516020016109569190611d32565b6040516020818303038152906040528051906020012060405160200161097b90611eb8565b6040516020818303038152906040528051906020012014156109d4578160066000878152602001908152602001600020600801546109b99190611ca0565b60066000878152602001908152602001600020600801819055505b826040516020016109e59190611d32565b60405160208183030381529060405280519060200120604051602001610a0a90611f19565b604051602081830303815290604052805190602001201415610a6357816006600087815260200190815260200160002060090154610a489190611ca0565b60066000878152602001908152602001600020600901819055505b82604051602001610a749190611d32565b60405160208183030381529060405280519060200120604051602001610a9990611f7a565b604051602081830303815290604052805190602001201415610af2578160066000878152602001908152602001600020600a0154610ad79190611ca0565b60066000878152602001908152602001600020600a01819055505b82604051602001610b039190611d32565b60405160208183030381529060405280519060200120604051602001610b2890611fdb565b604051602081830303815290604052805190602001201415610b81578160066000878152602001908152602001600020600b0154610b669190611ca0565b60066000878152602001908152602001600020600b01819055505b61101f565b82604051602001610b979190611d32565b60405160208183030381529060405280519060200120604051602001610bbc90611d95565b604051602081830303815290604052805190602001201415610c19578160066000600154815260200190815260200160002060040154610bfc9190611ff0565b600660006001548152602001908152602001600020600401819055505b82604051602001610c2a9190611d32565b60405160208183030381529060405280519060200120604051602001610c4f90611d95565b604051602081830303815290604052805190602001201415610cac578160066000600154815260200190815260200160002060050154610c8f9190611ff0565b600660006001548152602001908152602001600020600501819055505b82604051602001610cbd9190611d32565b60405160208183030381529060405280519060200120604051602001610ce290611df6565b604051602081830303815290604052805190602001201415610d3f578160066000600154815260200190815260200160002060060154610d229190611ff0565b600660006001548152602001908152602001600020600601819055505b82604051602001610d509190611d32565b60405160208183030381529060405280519060200120604051602001610d7590611e57565b604051602081830303815290604052805190602001201415610dd2578160066000600154815260200190815260200160002060070154610db59190611ff0565b600660006001548152602001908152602001600020600701819055505b82604051602001610de39190611d32565b60405160208183030381529060405280519060200120604051602001610e0890611eb8565b604051602081830303815290604052805190602001201415610e65578160066000600154815260200190815260200160002060080154610e489190611ff0565b600660006001548152602001908152602001600020600801819055505b82604051602001610e769190611d32565b60405160208183030381529060405280519060200120604051602001610e9b90611f19565b604051602081830303815290604052805190602001201415610ef8578160066000600154815260200190815260200160002060090154610edb9190611ff0565b600660006001548152602001908152602001600020600901819055505b82604051602001610f099190611d32565b60405160208183030381529060405280519060200120604051602001610f2e90611f7a565b604051602081830303815290604052805190602001201415610f8b5781600660006001548152602001908152602001600020600a0154610f6e9190611ff0565b600660006001548152602001908152602001600020600a01819055505b82604051602001610f9c9190611d32565b60405160208183030381529060405280519060200120604051602001610fc190611fdb565b60405160208183030381529060405280519060200120141561101e5781600660006001548152602001908152602001600020600b01546110019190611ff0565b600660006001548152602001908152602001600020600b01819055505b5b6001905061102d565b600090505b949350505050565b60066020528060005260406000206000915090508060000154908060010160009054906101000a900473ffffffffffffffffffffffffffffffffffffffff169080600201805461108490611c3f565b80601f01602080910402602001604051908101604052809291908181526020018280546110b090611c3f565b80156110fd5780601f106110d2576101008083540402835291602001916110fd565b820191906000526020600020905b8154815290600101906020018083116110e057829003601f168201915b50505050509080600301805461111290611c3f565b80601f016020809104026020016040519081016040528092919081815260200182805461113e90611c3f565b801561118b5780601f106111605761010080835404028352916020019161118b565b820191906000526020600020905b81548152906001019060200180831161116e57829003601f168201915b50505050509080600401549080600501549080600601549080600701549080600801549080600901549080600a01549080600b015490508c565b6004818051602081018201805184825260208301602085012081835280955050505050506000915090505481565b6007818154811061120357600080fd5b90600052602060002001600091509050805461121e90611c3f565b80601f016020809104026020016040519081016040528092919081815260200182805461124a90611c3f565b80156112975780601f1061126c57610100808354040283529160200191611297565b820191906000526020600020905b81548152906001019060200180831161127a57829003601f168201915b505050505081565b600060016002546112b09190611ca0565b600281905550600060405180610100016040528060025481526020018981526020013373ffffffffffffffffffffffffffffffffffffffff168152602001888152602001878152602001868152602001858152602001841515815250905060036000600154815260200190815260200160002060025490806001815401808255809150506001900390600052602060002001600090919091909150556002549150509695505050505050565b6003602052816000526040600020818154811061137857600080fd5b90600052602060002001600091509150505481565b82805461139990611c3f565b90600052602060002090601f0160209004810192826113bb5760008555611402565b82601f106113d457805160ff1916838001178555611402565b82800160010185558215611402579182015b828111156114015782518255916020019190600101906113e6565b5b50905061140f9190611460565b5090565b82805482825590600052602060002090810192821561144f579160200282015b8281111561144e578251825591602001919060010190611433565b5b50905061145c9190611460565b5090565b5b80821115611479576000816000905550600101611461565b5090565b6000604051905090565b600080fd5b600080fd5b6000819050919050565b6114a481611491565b81146114af57600080fd5b50565b6000813590506114c18161149b565b92915050565b6000602082840312156114dd576114dc611487565b5b60006114eb848285016114b2565b91505092915050565b6114fd81611491565b82525050565b600073ffffffffffffffffffffffffffffffffffffffff82169050919050565b600061152e82611503565b9050919050565b61153e81611523565b82525050565b600081519050919050565b600082825260208201905092915050565b60005b8381101561157e578082015181840152602081019050611563565b8381111561158d576000848401525b50505050565b6000601f19601f8301169050919050565b60006115af82611544565b6115b9818561154f565b93506115c9818560208601611560565b6115d281611593565b840191505092915050565b60008115159050919050565b6115f2816115dd565b82525050565b60006101008201905061160e600083018b6114f4565b61161b602083018a6114f4565b6116286040830189611535565b818103606083015261163a81886115a4565b9050818103608083015261164e81876115a4565b905061165d60a08301866114f4565b81810360c083015261166f81856115a4565b905061167e60e08301846115e9565b9998505050505050505050565b600080fd5b600080fd5b7f4e487b7100000000000000000000000000000000000000000000000000000000600052604160045260246000fd5b6116cd82611593565b810181811067ffffffffffffffff821117156116ec576116eb611695565b5b80604052505050565b60006116ff61147d565b905061170b82826116c4565b919050565b600067ffffffffffffffff82111561172b5761172a611695565b5b61173482611593565b9050602081019050919050565b82818337600083830152505050565b600061176361175e84611710565b6116f5565b90508281526020810184848401111561177f5761177e611690565b5b61178a848285611741565b509392505050565b600082601f8301126117a7576117a661168b565b5b81356117b7848260208601611750565b91505092915050565b6000806000806000806000806000806101408b8d0312156117e4576117e3611487565b5b60008b013567ffffffffffffffff8111156118025761180161148c565b5b61180e8d828e01611792565b9a505060208b013567ffffffffffffffff81111561182f5761182e61148c565b5b61183b8d828e01611792565b995050604061184c8d828e016114b2565b985050606061185d8d828e016114b2565b975050608061186e8d828e016114b2565b96505060a061187f8d828e016114b2565b95505060c06118908d828e016114b2565b94505060e06118a18d828e016114b2565b9350506101006118b38d828e016114b2565b9250506101206118c58d828e016114b2565b9150509295989b9194979a5092959850565b60006020820190506118ec60008301846114f4565b92915050565b6118fb816115dd565b811461190657600080fd5b50565b600081359050611918816118f2565b92915050565b6000806000806080858703121561193857611937611487565b5b6000611946878288016114b2565b945050602061195787828801611909565b935050604085013567ffffffffffffffff8111156119785761197761148c565b5b61198487828801611792565b9250506060611995878288016114b2565b91505092959194509250565b60006020820190506119b660008301846115e9565b92915050565b6000610180820190506119d2600083018f6114f4565b6119df602083018e611535565b81810360408301526119f1818d6115a4565b90508181036060830152611a05818c6115a4565b9050611a14608083018b6114f4565b611a2160a083018a6114f4565b611a2e60c08301896114f4565b611a3b60e08301886114f4565b611a496101008301876114f4565b611a576101208301866114f4565b611a656101408301856114f4565b611a736101608301846114f4565b9d9c50505050505050505050505050565b600060208284031215611a9a57611a99611487565b5b600082013567ffffffffffffffff811115611ab857611ab761148c565b5b611ac484828501611792565b91505092915050565b60006020820190508181036000830152611ae781846115a4565b905092915050565b60008060008060008060c08789031215611b0c57611b0b611487565b5b6000611b1a89828a016114b2565b965050602087013567ffffffffffffffff811115611b3b57611b3a61148c565b5b611b4789828a01611792565b955050604087013567ffffffffffffffff811115611b6857611b6761148c565b5b611b7489828a01611792565b9450506060611b8589828a016114b2565b935050608087013567ffffffffffffffff811115611ba657611ba561148c565b5b611bb289828a01611792565b92505060a0611bc389828a01611909565b9150509295509295509295565b60008060408385031215611be757611be6611487565b5b6000611bf5858286016114b2565b9250506020611c06858286016114b2565b9150509250929050565b7f4e487b7100000000000000000000000000000000000000000000000000000000600052602260045260246000fd5b60006002820490506001821680611c5757607f821691505b60208210811415611c6b57611c6a611c10565b5b50919050565b7f4e487b7100000000000000000000000000000000000000000000000000000000600052601160045260246000fd5b6000611cab82611491565b9150611cb683611491565b9250827fffffffffffffffffffffffffffffffffffffffffffffffffffffffffffffffff03821115611ceb57611cea611c71565b5b828201905092915050565b600081905092915050565b6000611d0c82611544565b611d168185611cf6565b9350611d26818560208601611560565b80840191505092915050565b6000611d3e8284611d01565b915081905092915050565b7f615f706f73000000000000000000000000000000000000000000000000000000600082015250565b6000611d7f600583611cf6565b9150611d8a82611d49565b600582019050919050565b6000611da082611d72565b9150819050919050565b7f625f706f73000000000000000000000000000000000000000000000000000000600082015250565b6000611de0600583611cf6565b9150611deb82611daa565b600582019050919050565b6000611e0182611dd3565b9150819050919050565b7f625f6e6567000000000000000000000000000000000000000000000000000000600082015250565b6000611e41600583611cf6565b9150611e4c82611e0b565b600582019050919050565b6000611e6282611e34565b9150819050919050565b7f6f5f706f73000000000000000000000000000000000000000000000000000000600082015250565b6000611ea2600583611cf6565b9150611ead82611e6c565b600582019050919050565b6000611ec382611e95565b9150819050919050565b7f6f5f6e6567000000000000000000000000000000000000000000000000000000600082015250565b6000611f03600583611cf6565b9150611f0e82611ecd565b600582019050919050565b6000611f2482611ef6565b9150819050919050565b7f61625f706f730000000000000000000000000000000000000000000000000000600082015250565b6000611f64600683611cf6565b9150611f6f82611f2e565b600682019050919050565b6000611f8582611f57565b9150819050919050565b7f61625f6e65670000000000000000000000000000000000000000000000000000600082015250565b6000611fc5600683611cf6565b9150611fd082611f8f565b600682019050919050565b6000611fe682611fb8565b9150819050919050565b6000611ffb82611491565b915061200683611491565b92508282101561201957612018611c71565b5b82820390509291505056fea26469706673582212205d3888bfb5bc1b47fec39cd10ac960077e26c71c557af60007cd9c905ff22d9364736f6c634300080b0033",
  "immutableReferences": {},
  "source": "// SPDX-License-Identifier: GPL-3.0\r\n\r\npragma solidity >=0.8.2 <0.9.0;\r\n\r\n/**\r\n * @title Storage\r\n * @dev Store & retrieve value in a variable\r\n * @custom:dev-run-script ./scripts/deploy_with_ethers.ts\r\n */\r\ncontract BloodBank {\r\n\r\n    address private admin;\r\n    uint private uniqueID ;\r\n    uint private tID ;\r\n     constructor () public {\r\n\r\n        admin=msg.sender;\r\n        uniqueID=100001;\r\n        tID=10001;\r\n    }\r\n   \r\n    struct transact{\r\n        uint tId;\r\n        uint uniqueID;\r\n        address senderAddress;\r\n        string recieverName;\r\n        string recieverAdhar;\r\n        uint amount;\r\n        string bType;\r\n        bool tType;\r\n\r\n    }\r\n    struct bloodBank{\r\n        uint uid;\r\n        address bankAdd;\r\n        string name;\r\n        string contact;\r\n        uint a_pos;\r\n        uint a_neg;\r\n        uint b_pos;\r\n        uint b_neg;\r\n        uint o_pos;\r\n        uint o_neg;\r\n        uint ab_pos;\r\n        uint ab_neg;\r\n    }\r\n    // This is a mapping of accounts and the products owned by the account (stroes unique ID)\r\n    mapping (uint => uint[]) public  tList; //uid-> list of tid\r\n    mapping (string => uint) public  bankName; //uid-> list of tid\r\n    mapping (uint => transact) public transactionList;// tid-> transaction\r\n    mapping ( uint => bloodBank ) public bankData; // uid->blood bank data\r\n    string[] public bank_name;\r\n    // // array for user's owned product names\r\n    // bytes32[] public OwnedNames;\r\n    \r\n   \r\n    \r\n    function addBank(string memory name,string memory  contact,  uint a_pos,\r\n        uint a_neg,uint b_pos,uint b_neg,uint o_pos, uint o_neg,\r\n        uint ab_pos,uint ab_neg) public returns(uint){\r\n             uniqueID=uniqueID+1;\r\n            \r\n            bloodBank memory b=bloodBank(uniqueID,msg.sender,name,contact\r\n             ,a_pos,a_neg,b_pos,b_neg,o_pos,o_neg,ab_pos,ab_neg\r\n             );\r\n            // BloodBank b = BloodBank(uniqueID, name, contact, a_pos, a_neg, b_pos, b_neg, o_pos, o_neg, ab_pos, ab_neg);\r\n            bankName[name]=uniqueID;\r\n             bankData[uniqueID]=b;\r\n             bank_name.push(name);\r\n             tList[uniqueID]=new uint[](0);\r\n             return uniqueID;\r\n        \r\n        }\r\n    function addTransaction(uint uniqueId,string memory recieverName,string memory recieverAdhar,\r\n        uint amount,string memory bType,bool tType) public returns(uint){\r\n            tID=tID+1;\r\n            transact memory t=transact(tID,uniqueId,msg.sender,recieverName,recieverAdhar,amount,bType,tType);\r\n            tList[uniqueID].push(tID);\r\n            return tID;\r\n        \r\n        }\r\n    function changeData(uint uniqueId,bool tType,string memory bType,uint amount) public returns(bool){\r\n        if(msg.sender == bankData[uniqueId].bankAdd){\r\n         if(tType==true){ // recieving blood\r\n            // string var s=bType;\r\n            if( keccak256(abi.encodePacked('a_pos')) == keccak256(abi.encodePacked(bType)))\r\n            bankData[uniqueId].a_pos=bankData[uniqueId].a_pos+amount;\r\n            if(keccak256(abi.encodePacked('a_pos')) == keccak256(abi.encodePacked(bType)))\r\n            bankData[uniqueId].a_neg=bankData[uniqueId].a_neg+amount;\r\n            if(keccak256(abi.encodePacked('b_pos')) == keccak256(abi.encodePacked(bType)))\r\n            bankData[uniqueId].b_pos=bankData[uniqueId].b_pos+amount;\r\n            if(keccak256(abi.encodePacked('b_neg')) == keccak256(abi.encodePacked(bType)))\r\n            bankData[uniqueId].b_neg=bankData[uniqueId].b_neg+amount;\r\n            if(keccak256(abi.encodePacked('o_pos')) == keccak256(abi.encodePacked(bType)))\r\n            bankData[uniqueId].o_pos=bankData[uniqueId].o_pos+amount;\r\n            if(keccak256(abi.encodePacked('o_neg')) == keccak256(abi.encodePacked(bType)))\r\n            bankData[uniqueId].o_neg=bankData[uniqueId].o_neg+amount;\r\n            if(keccak256(abi.encodePacked('ab_pos')) == keccak256(abi.encodePacked(bType)))\r\n            bankData[uniqueId].ab_pos=bankData[uniqueId].ab_pos+amount;\r\n            if(keccak256(abi.encodePacked('ab_neg')) == keccak256(abi.encodePacked(bType)))\r\n            bankData[uniqueId].ab_neg=bankData[uniqueId].ab_neg+amount;\r\n         }\r\n         else{\r\n             if( keccak256(abi.encodePacked('a_pos')) == keccak256(abi.encodePacked(bType)))\r\n            bankData[uniqueID].a_pos=bankData[uniqueID].a_pos-amount;\r\n            if(keccak256(abi.encodePacked('a_pos')) == keccak256(abi.encodePacked(bType)))\r\n            bankData[uniqueID].a_neg=bankData[uniqueID].a_neg-amount;\r\n            if(keccak256(abi.encodePacked('b_pos')) == keccak256(abi.encodePacked(bType)))\r\n            bankData[uniqueID].b_pos=bankData[uniqueID].b_pos-amount;\r\n            if(keccak256(abi.encodePacked('b_neg')) == keccak256(abi.encodePacked(bType)))\r\n            bankData[uniqueID].b_neg=bankData[uniqueID].b_neg-amount;\r\n            if(keccak256(abi.encodePacked('o_pos')) == keccak256(abi.encodePacked(bType)))\r\n            bankData[uniqueID].o_pos=bankData[uniqueID].o_pos-amount;\r\n            if(keccak256(abi.encodePacked('o_neg')) == keccak256(abi.encodePacked(bType)))\r\n            bankData[uniqueID].o_neg=bankData[uniqueID].o_neg-amount;\r\n            if(keccak256(abi.encodePacked('ab_pos')) == keccak256(abi.encodePacked(bType)))\r\n            bankData[uniqueID].ab_pos=bankData[uniqueID].ab_pos-amount;\r\n            if(keccak256(abi.encodePacked('ab_neg')) == keccak256(abi.encodePacked(bType)))\r\n            bankData[uniqueID].ab_neg=bankData[uniqueID].ab_neg-amount;\r\n         }\r\n         return true;\r\n         }\r\n         else{\r\n             return false;\r\n         }\r\n    }\r\n   \r\n\r\n    \r\n}\r\n",
  "sourcePath": "C:\\Users\\91629\\OneDrive\\Desktop\\BloodChain\\bloodchain\\contracts\\BloodBank.sol",
  "compiler": {
    "name": "solc",
    "version": "0.8.11+commit.d7f03943.Emscripten.clang"
  },
  "schemaVersion": "3.4.4",
  "updatedAt": "2023-07-10T10:38:16.729Z",
  "devdoc": {
    "custom:dev-run-script": "./scripts/deploy_with_ethers.ts",
    "details": "Store & retrieve value in a variable",
    "kind": "dev",
    "methods": {},
    "title": "Storage",
    "version": 1
  },
  "userdoc": {
    "kind": "user",
    "methods": {},
    "version": 1
  }
}